:020000040800F2
:1000000000090020D5040008B9270008712700085E
:10001000992700087127000891270008D7040008D5
:10002000D7040008D7040008D7040008593900088D
:10003000D7040008D7040008D7040008D704000834
:10004000D7040008D7040008D7040008D704000824
:10005000D7040008D7040008994B0008C14B0008DA
:10006000E94B0008114C0008394C0008D70400087F
:10007000D7040008D7040008D7040008D7040008F4
:10008000D7040008D7040008D7040008B5230008E7
:10009000E1230008F1230008D7040008614C0008A0
:1000A000D7040008D7040008D7040008D7040008C4
:1000B000494D0008D7040008D7040008D7040008F9
:1000C000D7040008D7040008D7040008D7040008A4
:1000D000D7040008354D0008D7040008D7040008ED
:1000E000C54C0008D7040008D7040008D70400084E
:1000F000D7040008D7040008D7040008D704000874
:10010000D7040008D7040008D7040008D704000863
:10011000D7040008D7040008D7040008D704000853
:10012000D7040008D7040008D7040008D704000843
:10013000D7040008D7040008D7040008D704000833
:10014000D7040008D7040008D7040008D704000823
:10015000D7040008D7040008D7040008D704000813
:10016000D7040008D7040008D7040008D704000803
:10017000D7040008D7040008D7040008D7040008F3
:10018000D7040008D7040008D7040008D7040008E3
:10019000D7040008D7040008D7040008D7040008D3
:1001A000D7040008D7040008D7040008D7040008C3
:1001B000D7040008D7040008D7040008D7040008B3
:1001C00049160008000000000000000000000000C8
:1001D00053B94AB9002908BF00281CBF4FF0FF31AE
:1001E0004FF0FF3000F074B9ADF1080C6DE904CEAA
:1001F00000F006F8DDF804E0DDE9022304B0704702
:100200002DE9F047089D04468E46002B4DD18A42C9
:10021000944669D9B2FA82F252B101FA02F3C2F1FC
:10022000200120FA01F10CFA02FC41EA030E94408D
:100230004FEA1C48210CBEFBF8F61FFA8CF708FBAE
:1002400016E341EA034306FB07F199420AD91CEB86
:10025000030306F1FF3080F01F81994240F21C81B8
:10026000023E63445B1AA4B2B3FBF8F008FB103300
:1002700044EA034400FB07F7A7420AD91CEB040435
:1002800000F1FF3380F00A81A74240F20781644405
:10029000023840EA0640E41B00261DB1D44000238A
:1002A000C5E900433146BDE8F0878B4209D9002DEE
:1002B00000F0EF800026C5E9000130463146BDE878
:1002C000F087B3FA83F6002E4AD18B4202D38242E2
:1002D00000F2F980841A61EB030301209E46002D91
:1002E000E0D0C5E9004EDDE702B9FFDEB2FA82F2E6
:1002F000002A40F09280A1EB0C014FEA1C471FFA44
:100300008CFE0126200CB1FBF7F307FB131140EA2A
:1003100001410EFB03F0884208D91CEB010103F1F7
:10032000FF3802D2884200F2CB804346091AA4B2B9
:10033000B1FBF7F007FB101144EA01440EFB00FE8D
:10034000A64508D91CEB040400F1FF3102D2A645F2
:1003500000F2BB800846A4EB0E0440EA03409CE791
:10036000C6F12007B34022FA07FC4CEA030C20FA3E
:1003700007F401FA06F31C43F9404FEA1C4900FA5E
:1003800006F3B1FBF9F8200C1FFA8CFE09FB1811DB
:1003900040EA014108FB0EF0884202FA06F20BD94E
:1003A0001CEB010108F1FF3A80F08880884240F29E
:1003B0008580A8F102086144091AA4B2B1FBF9F0E2
:1003C00009FB101144EA014100FB0EFE8E4508D9DD
:1003D0001CEB010100F1FF346CD28E456AD9023862
:1003E000614440EA0840A0FB0294A1EB0E01A14247
:1003F000C846A64656D353D05DB1B3EB080261EBB5
:100400000E0101FA07F722FA06F3F1401F43C5E98E
:10041000007100263146BDE8F087C2F12003D840C4
:100420000CFA02FC21FA03F3914001434FEA1C4706
:100430001FFA8CFEB3FBF7F007FB10360B0C43EAF8
:10044000064300FB0EF69E4204FA02F408D91CEBA8
:10045000030300F1FF382FD29E422DD902386344A6
:100460009B1B89B2B3FBF7F607FB163341EA034146
:1004700006FB0EF38B4208D91CEB010106F1FF3895
:1004800016D28B4214D9023E6144C91A46EA00468C
:1004900038E72E46284605E70646E3E61846F8E61E
:1004A0004B45A9D2B9EB020864EB0C0E0138A3E767
:1004B0004646EAE7204694E74046D1E7D0467BE748
:1004C000023B614432E7304609E76444023842E7C0
:1004D000704700BF02E000F000F8FEE772B63A484D
:1004E00080F30888394880F3098839484EF6085166
:1004F000CEF20001086040F20000CCF200004EF69F
:100500003471CEF200010860BFF34F8FBFF36F8FDD
:1005100040F20000C0F2F0004EF68851CEF2000129
:100520000860BFF34F8FBFF36F8F4FF00000E1EE15
:10053000100A4EF63C71CEF200010860062080F3EE
:100540001488BFF36F8F04F099F904F075F904F083
:10055000BFF94FF055301F491B4A91423CBF41F84B
:10056000040BFAE71C49194A91423CBF41F8040BBD
:10057000FAE71A491A4A1B4B9A423EBF51F8040B3C
:1005800042F8040BF8E700201749184A91423CBF93
:1005900041F8040BFAE704F053F904F0E5F9144CC0
:1005A000144DAC4203DA54F8041B8847F9E700F015
:1005B00041F8114C114DAC4203DA54F8041B884742
:1005C000F9E704F03BB90000000900200011002009
:1005D000000000080001002000090020F05200087F
:1005E000001100209011002090110020E43700201D
:1005F000C0010008C4010008C4010008C4010008CB
:100600002DE9F04F2DED108AC1F80CD0C3689D463E
:10061000BDEC108ABDE8F08F002383F311882846D3
:10062000A047002003F014FEFEE703F08DFD00DF7D
:10063000FEE70000F8B504F0B5F8074604F0F2F85C
:100640000546B8BB204B9F4234D001339F4234D083
:100650001E4B27F0FF029A4232D1F8B200F046FE5C
:100660002E4642F2107400F047FE08B100242646E0
:1006700002F0C0F920B1032000F07CF800242646E7
:1006800035B1134B9F4203D004F0C4F80024264632
:10069000002004F091F80EB100F082F801F054F956
:1006A00000F04EFE01F03EF8204600F0CFF800F0DA
:1006B00077F8F9E72E460024D5E704460126D2E76D
:1006C00006464FF47A74CEE7010007B0000008B088
:1006D000263A09B008B500F0F1FFA0F12003584216
:1006E000584108BD07B541F21203022101A8ADF837
:1006F000043001F001F803B05DF804FB38B52023A5
:1007000083F311881748C3680BB103F019FE164A2A
:10071000144800234FF47A7103F0D6FD002383F3CD
:100720001188124C236813B12368013B236063686E
:1007300013B16368013B63600D4D2B7833B9636877
:100740007BB9022001F08EF8322363602B78032BF3
:1007500007D163682BB9022001F084F84FF47A7353
:10076000636038BD90110020FD060008AC12002027
:10077000A4110020084B187003280CD8DFE800F003
:1007800008050208022001F063B8022001F058B801
:10079000024B00225A607047A4110020AC120020C6
:1007A00010B502F027F930B1224B03221A70224B08
:1007B00000225A6010BD214B214A1C4619680131A4
:1007C000F8D004339342F9D16268A242F2D31D4BB0
:1007D0009B6803F1006303F520439A42EAD203F0D9
:1007E000FFFF002000F0B8FF0220FFF7C3FF164B09
:1007F0009A6D00229A65996F9A67996FD96DDA653B
:10080000D96FDA67D96F196E1A66D3F88010C3F8FA
:100810008020D3F8803072B64FF0E0232021C3F857
:10082000084DD4E9003281F311889D4683F308888E
:100830001047BFE7A4110020AC12002000A0000860
:1008400020A0000800110020001002402DE9F04F08
:1008500093B0AC4B00902022FF210AA89D6801F0C4
:100860001DF8A94A1378A3B9A8480121C3601170E3
:10087000202383F31188C3680BB103F061FDA44A00
:10088000A24800234FF47A7103F01EFD002383F386
:100890001188009B13B19F4B009A1A609E4A009CDE
:1008A0001378032B1EBF002313709A4A4FF0000ADF
:1008B00018BF5360D3465646D146012000F0C8FF0A
:1008C00024B1944B1B68002B00F01582002000F02F
:1008D000F5FE0390039B002B01DA00F079FD039BEA
:1008E000002BEDDB012000F0ABFF039B213B162B1F
:1008F000E3D801A252F823F0550900087D09000849
:10090000110A0008BB080008BB080008BB08000863
:100910009B0A00086B0C0008850B0008E70B000819
:100920000F0C0008350C0008BB080008470C000835
:10093000BB080008B90C0008F5090008BB0800084E
:10094000FD0C000861090008F5090008BB08000853
:10095000E70B00080220FFF7BDFE002840F0F581FC
:10096000009B0221BAF1000F08BF1C4605A841F206
:100970001233ADF8143000F0BFFE9EE74FF47A70EA
:1009800000F09CFE071EEBDB0220FFF7A3FE002811
:10099000E6D0013F052F00F2DA81DFE807F0030A15
:1009A0000D10133605230593042105A800F0A4FEBD
:1009B00017E054480421F9E758480421F6E758485D
:1009C0000421F3E74FF01C08404600F0C7FE08F191
:1009D00004080590042105A800F08EFEB8F12C0F44
:1009E000F2D1012000FA07F747EA0B0B5FFA8BFB05
:1009F0004FF0000900F09EFF26B10BF00B030B2B0C
:100A000008BF0024FFF76EFE57E746480421CDE7F4
:100A1000002EA5D00BF00B030B2BA1D10220FFF76A
:100A200059FE074600289BD0012000F095FE0220C9
:100A3000FFF7A0FE00265FFA86F8404600F09CFE15
:100A4000044690B10021404600F0A6FE0136002881
:100A5000F1D1BA46044641F21213022105A8ADF8BD
:100A600014303E4600F048FE27E70120FFF782FEE3
:100A70002546244B9B68AB4207D9284600F06EFE02
:100A8000013040F067810435F3E7234B00251D70EA
:100A9000204BBA465D603E46ACE7002E3FF460AFA7
:100AA0000BF00B030B2B7FF45BAF0220FFF762FE12
:100AB000322000F003FEB0F10008FFF651AF18F04D
:100AC00003077FF44DAF0F4A926808EB050393428A
:100AD0003FF646AFB8F5807F3FF742AF124B019328
:100AE000B84523DD4FF47A7000F0E8FD0390039AD7
:100AF000002AFFF635AF019B039A03F8012B01375B
:100B0000EDE700BF00110020A81200209011002086
:100B1000FD060008AC120020A411002004110020E2
:100B2000081100200C110020A8110020C820FFF798
:100B3000D1FD074600283FF413AF1F2D11D8C5F192
:100B4000200242450AAB25F0030028BF42468349F4
:100B50000192184400F090FE019A8048FF2100F0B5
:100B60009DFE4FEAA8037D490193C8F387022846FA
:100B700000F09CFE064600283FF46DAF019B05EB9C
:100B8000830537E70220FFF7A5FD00283FF4E8AE14
:100B900000F020FE00283FF4E3AE0027B846704B7B
:100BA0009B68BB4218D91F2F11D80A9B01330ED066
:100BB00027F0030312AA134453F8203C0593404640
:100BC000042205A901F000FF04378046E7E7384614
:100BD00000F0C4FD0590F2E7CDF81480042105A8CB
:100BE00000F08AFD06E70023642104A8049300F0C6
:100BF00079FD00287FF4B4AE0220FFF76BFD0028DA
:100C00003FF4AEAE049800F0DBFD0590E6E700236C
:100C1000642104A8049300F065FD00287FF4A0AED1
:100C20000220FFF757FD00283FF49AAE049800F029
:100C3000C9FDEAE70220FFF74DFD00283FF490AE22
:100C400000F0D8FDE1E70220FFF744FD00283FF463
:100C500087AE05A9142000F0D3FD042107460490B7
:100C600004A800F049FD3946B9E7322000F026FD1E
:100C7000071EFFF675AEBB077FF472AE384A926866
:100C800007EB090393423FF66BAE0220FFF722FD0C
:100C900000283FF465AE27F003074F44B9453FF401
:100CA000A9AE484600F05AFD0421059005A800F0C1
:100CB00023FD09F10409F1E74FF47A70FFF70AFD0B
:100CC00000283FF44DAE00F085FD002844D00A9B7B
:100CD00001330BD008220AA9002000F0E7FD00280C
:100CE0003AD02022FF210AA800F0D8FDFFF7FAFC35
:100CF0001C4803F0B3FA13B0BDE8F08F002E3FF4A8
:100D00002FAE0BF00B030B2B7FF42AAE00236421D4
:100D100005A8059300F0E6FC074600287FF420AE06
:100D20000220FFF7D7FC804600283FF419AEFFF7FA
:100D3000D9FC41F2883003F091FA059800F010FEDA
:100D4000464600F0F7FD3C46B7E5064652E64FF052
:100D5000000905E6BA467EE637467CE6A811002083
:100D600000110020A0860100094A136849F26900B9
:100D700099B21B0C00FB01331360064B186844F258
:100D8000506182B2000C01FB0200186080B2704713
:100D9000141100201011002010B50021102204466B
:100DA00000F07CFD034B03CB206061601868A060FD
:100DB00010BD00BF9075FF1F2DE9F041ADF54E7DD0
:100DC0000DF134086CAC40F2751207460D460EA8C2
:100DD0000021C8F8001000F061FD4FF4C47200213A
:100DE000204600F05BFD01F0EFFC254B4FF47A72DA
:100DF000B0FBF2F0186093E80700012384E80700D5
:100E00000DF5E9702382FFF7C7FF44F604431D493F
:100E1000238406A804F058F91A2384F832310DF21D
:100E2000E32206AB0DF1300C1E4603CE6645106082
:100E30005160334602F10802F6D1338813804146EF
:100E40000122204601F0C6FC00230393AB7E0293EF
:100E500005F11903019380B20123CDE904800093C9
:100E6000E97E05A3D3E90023384602F01BF90DF50E
:100E70004E7DBDE8F08100BF9E6AC421818A46EEA6
:100E8000B4120020F85000082DE9F043224DBBB009
:100E900001F09AFCAB6840F2ED22C31A934232D9BA
:100EA00006AFA8602B4628220021384602F0E2FA5D
:100EB00005F10E0000F0EAFC002604465FFA80F916
:100EC00005F10E08F3B2F100994501F1280107D9A7
:100ED00008EB06030822384602F0CCFA0136F1E7A7
:100EE00008230122CDE9023205340C4B0193A4B250
:100EF00030230093CDE9047405A3D3E90023297BB3
:100F0000074802F0CFF83BB0BDE8F083AFF30080B4
:100F100078F6339F93CACD8DC8330020D533002097
:100F2000CC220020F0B58B8A013B9BB2C92BC9B003
:100F300006460C4647D8274D2F7B27BB05F10C03EF
:100F4000009308223B463946204602F057F97B1CA5
:100F5000FAB2D9001F46A38A013B9A4205DA0E3243
:100F60002A44009200230822EEE700230022C5E96C
:100F700000230023AB6085F8D730C5F8D8302B7B31
:100F80000BB9E37E2B738122002106AD27A800F068
:100F900085FC0122294627A801F0EAFC00230393DF
:100FA000A37E029304F1190380B201932823CDE9B3
:100FB0000450E17E0093304604A3D3E9002302F0FD
:100FC00071F8FFF761FF49B0F0BD00BF26417272B2
:100FD000DF25D7B7C833002070B50D4614461E462E
:100FE00001F0F6FF50B9022E10D1012C0ED112A340
:100FF000D3E90023C5E90023012007E0282C10D005
:1010000005D8012C09D0052C0FD0002070BD302C44
:10101000FBD10BA3D3E90023ECE70BA3D3E9002317
:10102000E8E70BA3D3E90023E4E70BA3D3E900230C
:10103000E0E700BFAFF30080401DA12026812A0B0E
:1010400078F6339F93CACD8D9E6AC421818A46EE7D
:1010500026417272DF25D7B7F017304A39059E5600
:101060002DE9F04F8DB002AF80460D4601F0B0FF84
:10107000044600285CD12B7E022B1BD1EB8A012B6E
:1010800018D101F0A1FB0646FFF76EFE03464FF4B0
:10109000C870DFF81C92B3FBF0F206F5167602FB7F
:1010A000103316FA83F3C9F80030EB7E33B97B4B6B
:1010B00000221A702C37BD46BDE8F08FAB8AE6B22D
:1010C000013BB34204F101040CD907F108031E44AB
:1010D000E10000960023082201F0F801284602F002
:1010E0008DF8EBE707F11800FFF756FE324607F1DF
:1010F000180107F1080003F0BBFE0028D7D10F2E1E
:1011000008D8664B1E70D9F80030A3F51673C9F8DD
:101110000030CFE7FB1DF87101460093072203461C
:10112000284602F06BF8F979404601F049FFC1E723
:10113000EB8A282B26D010D8012B1ED0052BB9D135
:10114000BFF34F8F5649574BCA6802F4E06213430E
:10115000CB60BFF34F8F00BFFDE7302BAAD16B7E72
:10116000514C0133627BDBB29342E94603D1EA7E04
:10117000237B9A420BD0CD469CE729464046FFF799
:101180001BFE97E729464046FFF7CCFE92E74FF05B
:10119000000807F11803A7F81880102200934146B1
:1011A0000123284602F02AF8AE8A023EB6B2F31CAA
:1011B0009B109B000733DB08A9EBC3039D460DF191
:1011C000080A1FFA88F34FEAC8019E4201F1100194
:1011D0000AD90AEB0803009308220023284602F0EC
:1011E0000DF808F10108ECE794F8D70000F0C4FA14
:1011F000D4F8D810054619B994F8D70000F0CCFA05
:10120000D4F8D83033449D4205D294F8D700002159
:10121000013000F0C1FA4FEA960B4FF000081FFAB8
:1012200088F18B45D4E9003209D90AEB880103EB38
:101230008800012200F03AFB08F10108EFE7F318FB
:1012400042F10002C4E90032D4F8D83094F8D70053
:1012500006EB0308C4F8D88000F08EFA804509D365
:1012600094F8D730D4F8D8000133401B84F8D73035
:10127000C4F8D800FF2E0D4D09D80023237300F0C9
:10128000A9FA01F0B7FB288108B9FFF789FA2368AA
:101290009B0A01332B810023A3606CE7C522002049
:1012A00000ED00E00400FA05C8330020B41200206D
:1012B000C822002010B50A4B0A4A1A6003F5805371
:1012C00093F860203AB9DC6D2CB1204601F016F994
:1012D000204603F08BFDBDE81040034801F00EB935
:1012E000F82200204851000840330020014B1870BC
:1012F000704700BFC012002010B54FF000540C4BD7
:1013000022689A4211D10B4B627D1A700A48237DE4
:1013100003730A49C9220E3000F0AEFAE022002120
:10132000204600F0BBFA012010BD0020FCE700BF02
:101330009AAD44C5C0120020C8330020160000201A
:1013400037B501F057FB194D1949288102230122B5
:1013500018486B7100F01EFF00230193164B1749CC
:1013600000931748174B4FF4805201F003FE164BC1
:10137000197811B1124801F023FE01F025FA044654
:10138000FFF7F2FC4FF4C873B0FBF3F202FB130358
:1013900004F5167010FA83F00C4B186003F042FA53
:1013A00008B10F232B8103B030BD00BFB412002061
:1013B00040420F00F8220020D90F0008C41200207C
:1013C000CC22002061100008C0120020C82200209A
:1013D0002DE9F04F2DED028B0FF25C29D9E9008940
:1013E0008B4C93B08B4E8C4F204601F0BFFE0346D2
:1013F00060B30025CDE90F550E95ADF84450027B42
:101400008DF8442099684068DFF834A20FAA03C21F
:101410001B6843F000430E9301F0D8F9821941F1A3
:10142000000300950EA9384600F0E2FAA84205DD57
:10143000204601F09FFE8AF80050D5E79AF8003068
:10144000072B00F2B58001338AF800300BAE9FED18
:101450006C8B0023704FDFF8ECA10A93ADF83430A9
:101460000B9373604FF0000B5B468DED008B0125F5
:101470000DF11D0207A938468DF81C508DF81DB0DE
:1014800000F038FE9DF81C30002B40F0958020467F
:1014900001F09EFD0646002845D1604F01F094F909
:1014A0003B6898423FD301F08FF98246FFF75CFC1E
:1014B0004FF4C8730AF5167AB0FBF3F202FB13037C
:1014C0001AFA83F33B60564F97F800B0CBF1100A3D
:1014D000BBF1000F14BF33462B465FFA8AFA0EA801
:1014E0008DF82830FFF758FCBAF1060F28BF4FF0EF
:1014F000060A0EAB03EB0B0152460DF1290000F07A
:10150000BBF90AAB0393182302930AF10102454B7E
:10151000D2B2CDE90053049220463BA3D3E9002385
:1015200001F058FD3E7001F04FF93F4A3F4D1368FE
:10153000C31AB3F57A7F2ED3106001F047F9024643
:101540000B46204601F020FE204601F041FD10B37D
:101550002B7B374E002B14BF03230223737101F042
:1015600033F90EAF4FF47A730122B0FBF3F0394632
:101570003060304601F0D4F9182302932D4B0193CB
:1015800080B240F25513CDE90370009342464B46BA
:10159000204601F01FFD2B7B2BB1FFF775FC2B7B49
:1015A000002B7FF41FAF13B0BDEC028BBDE8F08FB2
:1015B000204601F0DFFD49E7DAF8143083F08003BC
:1015C000CAF81430594610220EA800F067F90DF140
:1015D0001E0308AA0AA9384600F008FB96E8030093
:1015E0000FAB83E803009DF834308DF844300A9B3C
:1015F0000E930EA9DDE90823204601F083FF31E7B1
:101600000000000000000000401DA12026812A0BE0
:10161000CC22002040420F00F8220020C8220020E7
:10162000C5220020C4220020A8340020C833002096
:10163000B4120020AC340020F1C6A7C1D068080F56
:10164000AD3400200004004808B5054800F068FBF0
:10165000BDE80840034A0449002003F0C1BB00BFB5
:10166000F822002000350020B512000870B5104B9C
:101670001B780133DBB2012B0C4612D80D4B1D68D1
:1016800029684FF47A730E6AA2FB033201462246A0
:101690002846B047844204D1074B00221A7001202B
:1016A00070BD4FF4FA7002F0D9FD0020F8E700BFDA
:1016B000181100201C110020F434002007B500236D
:1016C000024601210DF107008DF80730FFF7CEFF2C
:1016D00020B19DF8070003B05DF804FB4FF0FF3028
:1016E000F9E700000A4608B50421FFF7BFFF80F0C4
:1016F0000100C0B2404208BD30B4074B0A46197819
:10170000064B53F821402368DD69054B0146AC4682
:10171000204630BC604700BFF43400201C1100207C
:10172000A086010070B502F0D7FE094E094D308049
:10173000002428683388834208D902F0C9FE2B6848
:1017400004440133B4F5204F2B60F2D370BD00BFC9
:10175000F6340020B034002002F07EBF00F10060BB
:1017600000F520400068704700F10060920000F52D
:10177000204002F0F5BE0000054B1A68054B1B889F
:101780009B1A834202D9104402F0A2BE0020704787
:10179000B0340020F634002038B5084D044629B195
:1017A00028682044BDE8384002F0AABE28682044DA
:1017B00002F094FE0028F3D038BD00BFB034002002
:1017C0000020704700F10050A0F51040D0F89005BF
:1017D00070470000064991F8243033B10023086AAD
:1017E00081F824300822FFF7BFBF0120704700BFF7
:1017F000B4340020014B1868704700BF002004E09B
:1018000070B50E4B5C6893F90860421E0A44013CB7
:101810000B46934207D214F9015F581C2DB100F812
:10182000015C0346F5E7184605E02C2482421C7053
:1018300001D9981C5E70401A70BD00BF20110020B5
:10184000022802BF014B80229A61704700040048C1
:10185000022802BF024B4FF400029A61704700BF9A
:1018600000040048022801BF024A536983F0800344
:10187000536170470004004810B50023934203D021
:10188000CC5CC4540133F9E710BD000003460246A6
:10189000D01A12F9011B0029FAD1704702440346FD
:1018A000934202D003F8011BFAE770472DE9F84391
:1018B0001F4D144695F824200746884652BBDFF892
:1018C00070909CB395F824302BB92022FF21484614
:1018D0002F62FFF7E3FF95F82400C0F10802A2424F
:1018E00028BF2246D6B24146920005EB8000FFF7A2
:1018F000C3FF95F82430A41B1E44F6B2082E1744EB
:101900009044E4B285F82460DBD1FFF763FF002840
:10191000D7D108E02B6A03EB82038342CFD0FFF7D5
:1019200059FF0028CBD10020BDE8F8830120FBE758
:10193000B4340020024B1A78024B1A70704700BF73
:10194000F43400201811002003494FF461430B6068
:10195000024B186802F01CBBDC3400201C11002074
:10196000094B10B51822044600211846FFF796FFD0
:10197000064A074B127804600146BDE8104053F850
:10198000220002F005BB00BFDC340020F43400204C
:101990001C110020202383F3118862B670470000D9
:1019A000002383F3118862B67047000010B4026808
:1019B00054681A4623465DF8044B184701207047C7
:1019C00000207047002070477047000000207047DB
:1019D0000E20704700F5805090F8C800C0F340001A
:1019E0007047000000F5805090F9C9007047000072
:1019F0002DE9F0410C68BDF8187014F000541E4633
:101A00006FD10B7B082B6CD8FFF7C4FF4569AB681F
:101A10005B010CD4AB681B0108D4AC6814F0805493
:101A20005DD1FFF7BDFF2046BDE8F08101240B68C2
:101A300004F1180C002BB8BFDB004FEA0C1CB4BF3C
:101A400043F004035B0545F80C300B680FFA84FC87
:101A500013F0804F18BF05EB0C1E05EB0C1C1EBFCE
:101A6000DEF8803143F00203CEF880310B7BCCF8F6
:101A7000843105EB04158B68C5F88C314B68C5F8CB
:101A80008831DCF8803143F00103CCF8803100EB81
:101A9000441541F268031D4403EB44130344C5E9B4
:101AA000002608330D4601F10C0C55F804EB43F801
:101AB00004EB6545F9D184342D881D8000EB441476
:101AC00007F00303257925F00B052B432371FFF75E
:101AD00067FF06973346BDE8F04100F0AFBC022433
:101AE000A5E74FF0FF309FE713B500F58054019153
:101AF000E06D00F039FD1F280AD90199E06D202220
:101B000000F0A8FDA0F120035842584102B010BDDA
:101B10000020FBE708B500F58050FFF73BFFC06DE4
:101B200000F0F6FCBDE80840FFF73ABF0022026073
:101B3000828142608260704710B500220023C0E9B4
:101B400000230023044603810C30FFF7EFFF2046FB
:101B500010BD0000F0B5054600F580500C4690F829
:101B6000C83013F0040FC3F3800108BF114661F3BE
:101B7000820304F1840680F8C83005EB461389B06F
:101B80001B79D8072ED57AB319072DD46846FFF7ED
:101B9000D3FF05EB441303F5835303F1180703AA9E
:101BA000103318685968144603C40833BB422246F0
:101BB000F7D1186820609B88A380DDE90E23CDE96A
:101BC00000230123ADF808302B686946DB6B2846FB
:101BD000984705EB46152B791A075CBF43F00803BD
:101BE0002B7101E0002AF4D109B0F0BD2DE9F047D6
:101BF000074688B007F5805468469A468846FFF73E
:101C0000C9FE9146FFF798FFE06D00F093FC1F2896
:101C100029D9E06D2022694600F09EFD202822D1BE
:101C200003AD444605AB2E4603CE9E422060616064
:101C3000354604F10804F6D130682060B388A380EB
:101C4000DDE90023C9E90023BDF80830AAF8003017
:101C5000FFF7A6FE4A4653464146384608B0BDE85F
:101C6000F04700F0D9BBFFF79BFE002008B0BDE8AD
:101C7000F08700002DE9F84F0023C0E90133254B20
:101C8000044640F8183B0F46FFF750FF04F12800C8
:101C9000FFF752FF04F1480804F58255464608351F
:101CA00030462036FFF748FFAE42F9D104F58055A3
:101CB0004FF480534FF00009C5E91339C5F8488047
:101CC0000123EE6504F5875804F58456C5F8549051
:101CD00085F8583085F86030083608F108084FF06C
:101CE000000A4FF0000B46E908ABA6F11800FFF719
:101CF0001DFF203646F8289C4645F4D185F8C9706A
:101D000017B1054800F05AFD044B63612046BDE859
:101D1000F88F00BF485100082051000800640040BF
:101D200010B5044B197804464A1C1A70FFF7A2FF3D
:101D3000204610BDFC3400202DE9F047002950D08A
:101D4000294B2A4FB7FBF1F599428CBF0A23112387
:101D5000581EB5FBF3FC03FB1C53C4B22BB1022885
:101D60000346F5D80020BDE8F0870CF1FF36B6F544
:101D7000806FF7D2C4EBC40E0EF103034FEAE30900
:101D8000C3F3C703A4EB030809F1010A4FF47A7502
:101D90005FFA88F009FB05555AFA88F8B5FBF8F5A3
:101DA000B5F5617FC1BF0EF1FF33C3F3C703E01A7E
:101DB000C0B25C1C50FA84F40CFB04F4B7FBF4F4DE
:101DC000A142CFD1013BDBB20F2BCBD80138C0B23F
:101DD0000728C7D80021107116809170D370012098
:101DE000C1E70846BFE700BF3F420F0000B4C4048C
:101DF00070B505460E464FF47A746B695B6803F064
:101E00000103B34207D04FF47A7002F027FA013C85
:101E1000F3D1204670BD0120FCE7000030B54269D7
:101E2000936913F0700F16D000230B4C936103F1EC
:101E3000840200EB421211794D0709D5890707D5B5
:101E4000416954F823508D60117941F004011171FA
:101E50000133032BEBD130BD3451000873B51D465F
:101E6000436916469A68D207044609D59A68012143
:101E70009960C2F34002CDE900650021FFF76AFED8
:101E800063699A68D1050BD59A684FF4807199609F
:101E9000C2F34022CDE9006501212046FFF75AFE3A
:101EA00063699A68D2030BD59A684FF480319960C0
:101EB000C2F34042CDE9006502212046FFF74AFE09
:101EC000204602B0BDE87040FFF7A8BFF8B5044651
:101ED000466900296CD106F10C07386880076AD082
:101EE00006EB01153868D5F8B00110F0040FD5F8ED
:101EF000B0011ABFC00840F00040400DA061D5F805
:101F0000B0C11CF0020F1CBF40F08040A061D5F8AA
:101F1000B40106EB011100F00F0084F82400D1F8A1
:101F2000B8012077D1F8B801000A6077D1F8B8017C
:101F3000000CA077D1F8B801000EE077D1F8BC0111
:101F400084F82000D1F8BC01000A84F82100D1F8FF
:101F5000BC01000C84F82200D1F8BC11090E84F8F1
:101F600023103821396004F1340004F1180104F120
:101F7000240551F8046B40F8046BA942F9D1098893
:101F80000180C4E90A2321460023238651F8283B17
:101F90002046DB6B984704F58052204692F8C83003
:101FA00043F0040382F8C830BDE8F840FFF736BFBD
:101FB00006F1100791E7F8BD10B5044600F006FCE5
:101FC00002460B4652EA030102D0013A63F10003D4
:101FD0000449086820B12146BDE81040FFF776BFEC
:101FE00010BD00BFF8340020F8B500F583511E463F
:101FF000FFF7D0FCDFF844C00831002404F1840569
:1020000000EB45152B795F070ED4DB060CD5D1E923
:1020100000739742B34107D243695CF824709F6014
:102020002B7943F004032B710134032C01F12001BF
:10203000E4D1BDE8F840FFF7B3BC00BF345100085D
:1020400008B5FFF7A7FCFFF7E9FEBDE80840FFF77A
:10205000A7BC0000F8B543690546986800F0E05059
:10206000B0F1E05F0F461FD0E8B1FFF793FC05F534
:1020700083541034002606F1840305EB43131B79C7
:102080001A0706D50136032E04F12004F3D10120EE
:1020900007E05B07F6D42146384600F009FA00282D
:1020A000F0D1FFF77DFCF8BD0120FCE700F5805082
:1020B00008B5FFF76FFCC06D00F03CFAFFF770FC4D
:1020C00043090CBF0120002008BD0000F8B51D46E3
:1020D000002313700F4606461446FFF7E7FF80F013
:1020E0000100387025B129463046FFF7B3FF207054
:1020F000F8BD00002DE9B8410C4615461F46804644
:1021000000F064FB0B462178024609B9287850B1EB
:102110004046FFF769FFFFF793FF3B462A462146FB
:10212000FFF7D4FF0120BDE8B881000010B5FFF72C
:1021300031FC174B9A6D42F000729A659A6B42F02F
:1021400000729A639A6B00F5805422F000729A63D1
:10215000FFF726FC94F8C830DB0718D4B9B1022188
:102160001320FFF717FC01F061FD0221142001F09C
:102170005DFD0221152001F059FD94F8C83043F0AF
:10218000010384F8C830BDE81040FFF709BC10BD5A
:10219000001002402DE9F04700F5805588B095F811
:1021A000C930012B0446884616467FD8804F57F821
:1021B00023200AB947F82300D7F800A0C4F80C8000
:1021C0002674BAF1000F63D095F8C930012B6FD097
:1021D00001212046FFF7AAFFFFF7DCFB62691368C5
:1021E00023F0020313606269136843F00103136074
:1021F000636900275F6101212046FFF7D1FBFFF7EC
:10220000F7FD002800F09580E86D00F081F904F5F5
:102210008359BA4609F10809202200216846FFF7D0
:102220003DFB02A8FFF782FCCDF818A06A4609EB37
:1022300007030DF1180E9446BCE80300F44518603E
:102240005960624603F10803F5D1DCF8000018601C
:1022500020379CF804201A71602FDDD195F8C83022
:102260006FF38203002785F8C8306A46414620464E
:10227000ADF80070ADF802708DF80470FFF75CFDEA
:10228000636948BB4FF400421A6008B0BDE8F087AC
:1022900041F2D00002F0ACFD814610B15146FFF78B
:1022A000E9FCC7F80090B9F1000F8DD10020ECE7F0
:1022B000386803681B6B98470146002888D1386846
:1022C000FFF734FF3868036832465B684146984739
:1022D00000287FF47DAFE9E761221A609DF80230A3
:1022E0009DF803201B06120402F4702203F04073D1
:1022F0001343BDF80020C2F3090213439DF80420E4
:102300001205022E02F4E0020CBF4FF00041002142
:10231000134362690B43D361636913225A61626993
:10232000136823F00103136039462046FFF760FD70
:1023300008B96369A6E795F8C93093BB6169D1F81C
:10234000002242F00102C1F800226169D1F80022A6
:1023500022F47C5222F00E02C1F800226169D1F809
:10236000002242F46062C1F800226269C2F81432AD
:102370006269C2F80432626941F6FF71C2F80C1258
:102380006269C2F840326269C2F84432636901226C
:10239000C3F81C226269D2F8003223F00103C2F8AC
:1023A000003295F8C83043F0020385F8C8306CE776
:1023B000F834002008B500F009FA50EA010302469B
:1023C00002D0421E61F10001044B186810B10B46A7
:1023D000FFF744FDBDE8084001F0F2BAF8340020F0
:1023E00008B50020FFF7E8FDBDE8084001F0E8BAB5
:1023F00008B50120FFF7E0FDBDE8084001F0E0BAB4
:1024000013B56C4684E80600031D94E8030083E8D6
:102410000500012002B010BD73B58568019155B16A
:102420001B885B0707D4D0E900369B6B9847019A5D
:10243000C1B23046A847012002B070BDF0B5866831
:1024400089B005460C465EB1BDF838305B070AD44A
:10245000D0E900379B6B98472246C1B23846B04757
:10246000012009B0F0BD00220023CDE900230023A4
:10247000ADF808300A4603AB01F108061068516850
:102480001C4603C40832B2422346F7D110682060CC
:102490009288A28000F09CF90423ADF808302B68E4
:1024A000CDE90001DB6B694628469847D8E7000074
:1024B00030B503680968DD0FB5EBD17F23F06044C8
:1024C00021F060424FEAD1700BD0002BB8BFA40CB2
:1024D0000029B8BF920C944202D034BF01200020E2
:1024E00030BD944205D1C1F38070C3F38073834241
:1024F000F6D194422CBF00200120F1E710B5037CF7
:10250000044613B9006802F0ABFC204610BD000081
:102510000023BFF35B8FC360BFF35B8FBFF35B8FA1
:102520008360BFF35B8F7047BFF35B8F0068BFF3BF
:102530005B8F704770B505460C30FFF7F5FF05F16E
:10254000080604463046FFF7EFFFA04206D93046A2
:102550006D68FFF7E9FF2544281A70BD3046FFF784
:10256000E3FF201AF9E7000070B50546406898B10E
:1025700005F10800FFF7D8FF05F10C0604463046C8
:10258000FFF7D2FF8442304694BF6D680025FFF705
:10259000CBFF013C2C44201A70BD000038B50C461E
:1025A0000546FFF7C7FFA04210D305F10800FFF76B
:1025B000BBFF04446868B4FBF0F100FB1144BFF3B7
:1025C0005B8F0120AC60BFF35B8F38BD0020FCE760
:1025D0002DE9F041144607460D46FFF7C5FF84423A
:1025E00028BF0446D4B1B84658F80C6B4046FFF7F4
:1025F0009BFF3044286040467E68FFF795FF331A02
:102600009C4203D86C600120BDE8F0816B60A41B84
:102610003B68AB602044E8600220F5E72046F3E722
:1026200038B50C460546FFF79FFFA04210D305F1D1
:102630000C00FFF779FF04446868B4FBF0F100FB7D
:102640001144BFF35B8F0120EC60BFF35B8F38BD9B
:102650000020FCE72DE9FF41884669460746FFF761
:10266000B7FF6C4606B204EBC6060025B44209D09B
:102670006268206808EB0501FFF7FEF8636808341C
:102680001D44F3E729463846FFF7CAFF284604B041
:10269000BDE8F081F8B505460C300F46FFF744FF62
:1026A00005F1080604463046FFF73EFFA0423046DB
:1026B00088BF6C68FFF738FF201A386020B13046B9
:1026C0002C68FFF731FF2044F8BD000073B51446B5
:1026D00006460D46FFF72EFF844228BF04460190B0
:1026E000DCB101A93046FFF7D5FF019B33B9326851
:1026F000C5E90233C5E9002401200CE09C4238BF43
:1027000001942860019868608442F5D93368AB6011
:10271000241AEC60022002B070BD2046FBE70000E6
:102720002DE9FF410F466946FFF7D0FF6C4600B226
:1027300004EBC0050026AC4209D0D4F8048054F85C
:10274000081BB8194246FFF797F84644F3E73046AE
:1027500004B0BDE8F081000038B50546FFF7E0FFA2
:10276000044601462846FFF719FF204638BD000001
:1027700000B59BB0EFF3098168226846FFF77CF84B
:10278000EFF30583014B9B6BFEE700BF00ED00E01C
:1027900008B5FFF7EDFF000000B59BB0EFF309812E
:1027A00068226846FFF768F8EFF30583014B5B6B1F
:1027B000FEE700BF00ED00E0FEE700000FB408B543
:1027C000029801F0E5FCFEE701F086BF01F05EBF74
:1027D00001F05CBF2DE9F0470D460446002190460C
:1027E000284640F27912FFF759F8234620220021AB
:1027F000284600F03FFE231D02222021284600F03B
:1028000039FE631D03222221284600F033FEA31D5A
:1028100003222521284600F02DFE04F10803102292
:102820002821284600F026FE04F110030822382152
:10283000284600F01FFE04F111030822402128461B
:1028400000F018FE04F1120308224821284600F087
:1028500011FE04F1140320225021284600F00AFE44
:1028600004F1180340227021284600F003FE04F111
:1028700020030822B021284600F0FCFD04F12103CA
:102880000822B821284600F0F5FD04F12207C026F1
:102890003B46314608222846083600F0EBFDB6F5E7
:1028A000A07F07F10107F3D104F13203082231467A
:1028B000284600F0DFFD002704F1330A94F8323097
:1028C0004FEAC7099F4209F5A47615D3B8F1000F66
:1028D00008D1314604F599730722284600F0CAFD55
:1028E00009F24F16274694F832213B1B93420CD332
:1028F000F01DC008BDE8F0870AEB07030822314647
:10290000284600F0B7FD0137D8E707F23313314608
:102910000822284600F0AEFD08360137E3E7000044
:1029200013B504460846002101602346C0F8031091
:102930002022019000F09EFD0198231D02222021FB
:1029400000F098FD0198631D0322222100F092FD02
:102950000198A31D0322252100F08CFD019804F1AC
:1029600008031022282100F085FD072002B010BDC9
:10297000F8B50E4605461446002181223046FEF782
:102980008DFF2B4608220021304600F073FD7CB9F4
:102990006B1C07220821304600F06CFD0F24012338
:1029A0006A785F1C013B934204D3E01DC008F8BD68
:1029B0000824F4E7EB1921460822304600F05AFDBE
:1029C00008343B46ECE7000030B5094D0A4491421B
:1029D0000DD011F8013B5840082340F30004013B9F
:1029E0002C4013F0FF0384EA5000F6D1EFE730BD2E
:1029F0002083B8ED73B5384A106851686B4603C33D
:102A00006A4636493648082302F042FA044670B94D
:102A1000344A106851686B4603C36A4632493048ED
:102A2000082302F035FA044630BB0A2022E003698D
:102A3000B3F5583FECD8418B40F24C429142E7D17C
:102A40002A4A024402F110018B42E1D3103B24498F
:102A500000209D1AFFF7B8FF2A46064604F1180128
:102A60000020FFF7B1FFA3689E42D1D1E3689842EE
:102A7000CED1002002B070BD0369B3F5583F22D813
:102A8000B0F8661040F24C4291421ED1174A0244FF
:102A900002F15C018B421AD35C3B114900209D1A64
:102AA000FFF792FF2A46064604F164010020FFF773
:102AB0008BFFA268964203460BD1E068834214BFA5
:102AC0000D200020D6E70B20D4E70C20D2E7102001
:102AD000D0E70D20CEE700BF88510008DC5F03007F
:102AE00000A0000891510008905F03000860FFF704
:102AF0002DE9F041C56915B9C161BDE8F0814B68A8
:102B000023F06047C3F38A464FEAD37EC3F380784D
:102B100016EA230638BF3E46AC462B465A68BEEB43
:102B2000D27F22F060440AD0002A18DAA40CB44202
:102B300017D19D420FD10D60DEE71346EEE7A742A5
:102B400007D102F08044C2F3807242450BD054B1E9
:102B5000EFE708D2EDE7CCF800100B60CDE7B44208
:102B600001D0B442E5D81A689C46002AE5D1196024
:102B7000C3E700002DE9F047089D01F007044FEA84
:102B8000D508224405F0070500EBD1004FF47F493A
:102B9000944201D1BDE8F08704F0070705F0070A69
:102BA00057453E4638BF5646C6F10806111B8E42B1
:102BB00028BF0E46E10808EBD50E415C13F80EC0A5
:102BC000B94029FA06F721FA0AF1FFB28CEA0101AD
:102BD00047FA0AF739408CEA010C03F80EC0344476
:102BE0003544D5E780EA0120082341F2210201B2F1
:102BF0004000002980B203F1FF33B8BF504013F00A
:102C0000FF03F4D17047000038B50C468D18A5427B
:102C100000D138BD14F8011BFFF7E4FFF7E700000F
:102C200002684AB113680360C388018901339BB20B
:102C30009942C38038BF03811046704770B588B091
:102C4000202204460D4668460021FEF727FE204656
:102C50000495FFF7E5FF024658B16B46054608AEFE
:102C60001C4603CCB44228606960234605F1080580
:102C7000F6D1104608B070BD082817D909280CD025
:102C80000A280CD00B280CD00C280CD00D280CD006
:102C90000E2814BF4020302070470C2070471020B1
:102CA000704714207047182070472020704700009C
:102CB000082817D90C280CD910280CD914280CD99D
:102CC00018280CD920280CD930288CBF0F200E20B2
:102CD0007047092070470A2070470B2070470C206E
:102CE00070470D207047000010B54B6823B9CA8AA1
:102CF00063F30902CA8210BDC4681A681C60C3600D
:102D0000438A013B43824A60EFE700002DE9F84F18
:102D10001D46CB8A0F46C3F3090105298146924619
:102D20000B4630D00020AAB207F11A049EB2042E3E
:102D30001FFA80F80FD8904503F1010306D3FB8AF0
:102D40000A4462F30903FB8201201AE01AF80060CA
:102D5000E6540130EAE79045F1D2A1F1050B1C23BE
:102D60007C68BBFBF3F203FB12BB1FFA8BF6002C53
:102D700045D14846FFF754FF044638B978606FF0F4
:102D80000200BDE8F88F4FF00008E6E70026066075
:102D90007860ADB24FF0000B454510D90AEB08033F
:102DA000221D13F8011B9155B1B208F101081B292E
:102DB0001FFA88F82BD0454506F10106F1D8FB8AA9
:102DC000C3F30902154465F30903BCE7013292B26B
:102DD0001C462368002BF9D16B1F0B441C21B3FB4D
:102DE000F1F301339BB29A42D3D2BBF1000FD0D1A1
:102DF0004846FFF715FF20B9C4F800B0BFE701222D
:102E0000E7E7C0F800B05E4620600446C1E74545EC
:102E1000D5D94846FFF704FF08B92060AFE7C0F8EE
:102E200000B0002620600446B6E700002DE9F04F10
:102E30002DED028B83B0CDE90013BDF83C50074661
:102E40009146002A00F092802DB10E9B002B00F0DD
:102E50008D80072D32D807F10C00FFF7E1FE044604
:102E600038B96FF00204204603B0BDEC028BBDE818
:102E7000F08F14220021FEF711FD0E992A4604F16D
:102E80000800FEF7F9FC681CC0B2FFF711FFFFF75E
:102E9000F3FE207499F80030013814FA80F003F042
:102EA0001F0363F03F030372009B43F00041616026
:102EB00038462146FFF71CFE0124D4E700F10C033D
:102EC0004FF0000808EE103A4FF0800A464644469C
:102ED00018EE100AFFF7A4FE83460028C1D0142282
:102EE0000021FEF7DBFCC6BB019BABF808300220DB
:102EF0000E9B00F1080299195BFA82F20130C0B210
:102F0000082801D0AE422AD3FFF7D2FEFFF7B4FE65
:102F100099F80020009B411E02F01F0242EA48126D
:102F2000AE4208BF4FF0400A5BFA81F14AEA020A5A
:102F300043F0004281F808A08BF81000CBF8042081
:102F400059463846FFF7D4FD0134AE4224B288F02A
:102F500001084FF0000ABBD185E70020C8E711F84F
:102F600001CB02F801CB0136B6B2C7E76FF001041E
:102F700079E70000F8B515460E46282200210446E0
:102F80001F46FEF78BFC069B6360B5F5001F079B91
:102F9000A76034BF6A094FF6FF72236204F10C0088
:102FA00097B200239A4205D80023036027826382E8
:102FB000A382F8BD0660013330462036F2E70000F8
:102FC00003781BB94BB2002BC8BF017070470000DB
:102FD000007870472DE9F74FDDF83C90BDF8305090
:102FE0000D9E9DF83840BDF84070804692469B4645
:102FF000B9F1000F01D1002F51D11F2C4FD898F8F3
:103000000000B0B9072F47D835F0030347D13A463F
:1030100049464FF6FF70FFF7F7FD20F001002D0243
:10302000400445EA0464400C44EA40244FF6FF7330
:1030300021E040EA0520072F40EA0464F6D9002584
:103040004FF6FF73C5F12000A5F120022AFA05F121
:103050000BFA00F001432BFA02F211431846C9B2F1
:10306000FFF7C0FD0835402D0346EBD13A464946EF
:10307000FFF7CAFD0346CDE9009732462146404698
:10308000FFF7D4FE33780133DBB21F2B88BF002358
:10309000337003B0BDE8F08F6FF00300F9E76FF015
:1030A0000100F6E72DE9F04F85B09246DDF8488043
:1030B0000F9D9DF840209DF84490BDF84C70064649
:1030C0009B46B8F1000F01D1002F48D11F2A46D8E6
:1030D0003378002B46D00C0244EA02649DF8381085
:1030E00044EAC93444EA01441C43072F44F08004F5
:1030F00032D900234FF6FF72C3F1200CA3F1200058
:103100002AFA03F10BFA0CFC41EA0C012BFA00F04D
:103110000143C9B210460393FFF764FD039B0833D4
:10312000402B0246E8D13A464146FFF76DFD034683
:10313000CDE900872A4621463046FFF777FEB9F1F0
:10314000010F06D12B780133DBB21F2B88BF002380
:103150002B7005B0BDE8F08F4FF6FF73E8E76FF016
:103160000100F6E76FF00300F3E70000C06900B16B
:1031700004307047C3691A68C261C2681A60C360CC
:10318000438A013B438270472DE9F041D0F8188013
:10319000194E14461D464146002709B9BDE8F08185
:1031A000D1E90223A21A65EB0303964277EB0303EE
:1031B0001ED283698B420DD1FFF796FD83691B6890
:1031C0008361C3680B60438AC1608169013B4382AC
:1031D0008846E2E7FFF788FD0B68C8F80030C3684F
:1031E0000B60438AC160013B4382D8F80010D4E7EA
:1031F00088460968D1E700BF80841E002DE9F04FA2
:103200008BB00D46DDF8509014469B468046002852
:1032100000F01981B9F1000F00F01581531E3F2B0A
:1032200000F21181012A03D1BBF1000F40F00B81A4
:103230000023CDE90833B8F81430B5EBC30F4FEADB
:10324000C30703D300200BB0BDE8F08F2B199F42BA
:10325000D8F80C303ABF7F1BFFB227461BB9D8F80D
:103260001030002B7AD0272D4ED8C5F12806B74252
:103270004FF000032CBFF6B23E4600932946D8F823
:10328000080008AB3246FFF775FCA7EB060A354489
:103290005FFA8AFAB8F8143003F10053053BDB00FB
:1032A0000493D8F80C3003932821039B13B1BAF18F
:1032B000000F2CD1D8F8100040B1BAF1000F05D0A2
:1032C000009608AB5246691AFFF754FC38B2002F3B
:1032D000B8D066070AD00AAB03EBD401624211F8FA
:1032E000083C02F00702134101F8083C082C3CD9C5
:1032F000102C40F2B580202C40F2B780BBF1000FBB
:1033000000F09C80082334E0BA460026C2E7049B04
:10331000E02B28BFE02306930B44AB42059314D95E
:103320005A1B03980096924534BF5246D2B2691A8E
:1033300008AB04300792FFF71DFC079A1644AAEB6E
:10334000020A1544F6B25FFA8AFA049B069A0599B6
:103350009B1A0493039B1B680393A6E70093D8F87A
:10336000080008AB3A462946AEE7BBF1000F13D080
:103370000123B4EBC30F6CD0082C12D89DF8203079
:10338000621E23FA02F2D50706D54FF0FF3202FA89
:1033900004F423438DF820309DF8203089F8003064
:1033A00051E7102C12D8BDF82030621E23FA02F229
:1033B000D10706D54FF0FF3202FA04F42343ADF8EB
:1033C0002030BDF82030A9F800303CE7202C0FD881
:1033D0000899631E21FA03F3DA0705D54FF0FF328F
:1033E00002FA04F40C430894089BC9F800302AE759
:1033F000402C2BD0DDE90865611EC4F12102A4F147
:10340000210326FA01F105FA02F225FA03F311432A
:103410001943CB0712D50122A4F12003C4F12001E6
:1034200002FA03F322FA01F1A240524243EA0103F5
:1034300063EB430332432B43CDE90823DDE9082343
:10344000C9E90023FFE66FF00100FCE66FF0080019
:10345000F9E6082CA0D9102CB3D9202CEED8C3E75C
:10346000BBF1000FADD0022383E7BBF1000FBBD04F
:1034700004237EE730B5012A144638BF0124402CCE
:1034800085B028BF40240025012ACDE9025518D86F
:103490001B788DF8083063070AD004AB03EBD40522
:1034A000624215F8083C02F00702934005F8083C18
:1034B000009103462246002102A8FFF75BFB05B0FE
:1034C00030BD082AE4D9102A03D81B88ADF808308B
:1034D000E1E7202A8DBFD3E900231B680293CDE9E1
:1034E0000223D8E710B5CB681BB98B600B618B82C8
:1034F00010BDC4681A681C60C360438A013B4382E4
:10350000CA60F0E72DE9F04F95B0CDE904230B68D0
:1035100004460D461806C3F3C01147BFC3F3C03BB2
:10352000C3F306264FF0020B0E46002B80F20182F9
:1035300013F0C04940F0FD812A7B002A00F0F98198
:10354000BBF1020F03D02078B04240F0F581C3F305
:103550000460089003F07F00069059B3C3F3074A54
:103560002A44069B92F80380760646EA0B4646EA12
:10357000834600220023CDE90A235FEAD81346EAF6
:103580000A0603936AD0069B009367685B4652461F
:103590000AA92046B847002800F0D181A76987B959
:1035A000314604F10C00FFF749FB0746C8B96FF03C
:1035B000020057E0C3F30F2A590608BF0AF0030AB6
:1035C000CEE73B699E420DD03F68002FF9D13146CE
:1035D00004F10C00FFF732FB07460028E7D0A3698F
:1035E0003B60A761FE7D08F01F03C6F38406F01A56
:1035F0001FFA80FC0028B8BF0CF120000793A3EB52
:1036000006031FFA83FCD7E90221B8BF00B2002BE2
:103610000993BEBF0CF120031BB2099352EA0103C8
:1036200035D0049EDFF8D4C2B21A059E66EB0101C4
:103630000026944576EB010329D395F80DE097F821
:103640001AC0E64516D1039B002B78D001281EDC5A
:10365000A948904276EB010316D338E0A76927B951
:103660006FF00C0015B0BDE8F08F3B699E42B9D0F9
:103670003F68F4E7A048904276EB010301D30020B5
:10368000F0E7039B002BFAD0099B0F2B18DCFA7D87
:103690004FEA880302F0030203F07C031343FB7537
:1036A00039462046FFF720FB6B7BBB76039B3BB97B
:1036B000FB7DC3F38402013262F38603FB75CFE71F
:1036C0006A7BBB7E9A42DAD1039B002B37D04FEA4C
:1036D0009813022B33D0049BBB60059BFB60142224
:1036E00000210FA8FEF7DAF8049B0C93059B0D93BD
:1036F0002B1D0E932B7BADF846A0013BDBB2ADF842
:103700004430079B8DF84930089B8DF84A30069B62
:103710008DF84B3094F824308DF848B083F00103D5
:103720008DF84C300CA9A36820469847FB7DC3F365
:103730008403013303F01F039B02FB829FE7FB7DA1
:10374000C8F34012B2EBD31F40F0FC80079AC3F3DA
:103750008403934240F0F98003992B7B4FEA98123F
:1037600000294DD0D2075DD4032B40F2F180049B99
:10377000BB60059BFB602B7BAE1D033BDBB232467F
:10378000394604F10C00FFF7C1FA00280CDA39467B
:103790002046FFF7A9FAFB7DC3F38403013303F04E
:1037A0001F039B02FB8202E7DDE90A84AB883B83AF
:1037B0004FF6FF73C9F12000A9F1200228FA09F1A0
:1037C00004FA00F0014324FA02F211431846C9B288
:1037D000FFF708FA09F10809B9F1400F0346E9D1EA
:1037E000B8822A7B033AD2B23146FFF70DFAFB7D4D
:1037F000B882DA43C2F3C01262F3C713FB753EE727
:1038000082B92E1D013BDBB23246394604F10C0071
:10381000FFF77CFA0028BADB2A7BB88A013AD2B2D9
:103820003146E2E7F98AC1F30901013B0429DAB222
:103830005CD8281D002307F11B069A4208D910F80E
:1038400001CB06F801C0013101330529DBB2F4D107
:1038500004990C9105990D91934207F11B010E916A
:1038600038BF043379680F9134BF55FA83F30023CE
:103870001093FB8AADF846A0C3F309031A44079BD3
:103880008DF84930089B8DF84A30069B8DF84B30F7
:1038900094F82430ADF8442083F001038DF84C30C7
:1038A00000238DF848B07B602A7BB88A013A291D35
:1038B000FFF7AAF93B8BB882834203D1A3680CA916
:1038C0002046984720460CA9FFF70CFEFB7DBA8ADC
:1038D000C3F38403013303F01F039B02FB823B8B82
:1038E0009A420CBF00206FF01000BBE67B68002BF3
:1038F000AED0052006E000BF40420F0080841E00CD
:103900001C3033461E68002EFAD1091A081D2E1DE0
:10391000184401EB090CBCF11B0F5FFA89F397D82F
:103920009A4295D916F8013B00F8013B09F10109CB
:10393000EFE76FF0090095E66FF00A0092E66FF08E
:103940000B008FE66FF00D008CE66FF00E0089E63D
:103950006FF00F0086E600BFEFF3098305494A6B5D
:1039600022F001024A63683383F30988002383F35A
:103970001188704700EF00E0202080F3118862B6C4
:103980000C4B0D4AD96821F4E0610904090C0A4383
:10399000DA60D3F8FC20094942F08072C3F8FC20B9
:1039A0000A6842F001020A601022DA7783F82200E6
:1039B000704700BF00ED00E00003FA05001000E0D2
:1039C00010B5202383F311880E4B5B6813F400635A
:1039D00014D0F1EE103AEFF30984683C4FF0807395
:1039E000E361094BDB6B236684F3098800F082FBFB
:1039F00010B1064BA36110BD054BFBE783F31188A3
:103A0000F9E700BF00ED00E000EF00E02B06000842
:103A10002E060008026843681143016003B118478D
:103A200070470000024A136843F0C00313607047F8
:103A30000038014013B50D4C204600F09DFA04F10A
:103A400014000B4900940023202200F05FF9094B79
:103A500009490094202204F1380000F0D9F9074AFE
:103A6000074BC4E9172302B010BD00BF0435002086
:103A700070350020253A00089035002000380140BC
:103A800000B4C40430B5037C234C002918BF0C4695
:103A9000012B0FD1214B98420CD1214B1A6E42F4CD
:103AA00080421A66D3F8802042F48042C3F8802016
:103AB000D3F880302268036EC16D846603EB520335
:103AC000B3FBF2F36268150442BF23F0070503F06D
:103AD000070343EA4503CB60A36843F040034B6010
:103AE000E36843F001038B6042F4967343F00103F3
:103AF0000B604FF0FF330B62510505D512F0102219
:103B000005D0B2F1805F04D080F8643030BD7F23EF
:103B1000FAE73F23F8E700BF9C5100080435002076
:103B2000001002402DE9F047C66D3768F469346231
:103B30002107054618D014F0080118BF8021E207BC
:103B400048BF41F02001A30748BF41F04001600792
:103B500048BF41F48071202383F31188281DFFF7AB
:103B600059FF002383F31188E2050AD5202383F34C
:103B700011884FF40071281DFFF74CFF002383F3D9
:103B800011884FF020094FF0000A14F0200838D1B6
:103B90003B0616D54FF0200905F1380A200610D54E
:103BA00089F31188504600F067F9002836DA0821B9
:103BB000281DFFF72FFF27F080033360002383F3D6
:103BC0001188790614D5620612D5202383F3118853
:103BD000D5E913239A4208D12B6C33B11021281D4B
:103BE00027F04007FFF716FF3760002383F31188A3
:103BF000E30619D5AA6E1369B3B1BDE8F047506961
:103C0000184789F31188B38C95F864102846194039
:103C100000F0CCF98AF31188F469B6E780B23085F8
:103C200088F31188F469B9E7BDE8F08700F16043D3
:103C300003F561430901C9B283F80013012200F0C2
:103C40001F039A4043099B0003F1604303F561435E
:103C5000C3F880211A607047F8B515468268066976
:103C6000AA420B46816938BF8568761AB542044678
:103C70000BD218462A46FDF7FFFDA3692B44A3612A
:103C8000A3685B1BA3602846F8BD0CD918463246D2
:103C9000FDF7F2FDAF1BE1683A463044FDF7ECFD5D
:103CA000E3683B44EBE718462A46FDF7E5FDE36889
:103CB000E5E7000083689342F7B51546044638BF30
:103CC0008568D0E90460361AB5420BD22A46FDF762
:103CD000D3FD63692B446361A36828465B1BA36023
:103CE00003B0F0BD0DD932460191FDF7C5FD019934
:103CF000E068AF1B3A463144FDF7BEFDE3683B4444
:103D0000E9E72A46FDF7B8FDE368E4E710B50A44A1
:103D10000024C361029B8460C0E90000C0E9051172
:103D2000C1600261036210BD08B5D0E9053293425B
:103D300001D1826882B98268013282605A1C426174
:103D40001970D0E904329A4224BFC368436100214C
:103D500000F0A0FA002008BD4FF0FF30FBE70000A4
:103D600070B5202304460E4683F31188A568A5B1DB
:103D7000A368A269013BA360531CA3611578226963
:103D8000934224BFE368A361E3690BB120469847DF
:103D9000002383F31188284607E03146204600F0CF
:103DA00069FA0028E2DA85F3118870BD2DE9F74F32
:103DB00004460E4617469846D0F81C904FF0200A4D
:103DC0008AF311884FF0000B154665B12A4631463B
:103DD0002046FFF741FF034660B94146204600F008
:103DE00049FA0028F1D0002383F31188781B03B02F
:103DF000BDE8F08FB9F1000F03D001902046C8470D
:103E0000019B8BF31188ED1A1E448AF31188DCE7BD
:103E1000C0E90511C160C3611144009B8260C0E923
:103E20000000016103627047F8B504460D4616466E
:103E3000202383F31188A768A7B1A368013BA3607F
:103E400063695A1C62611D70D4E904329A4224BF2E
:103E5000E3686361E3690BB120469847002080F373
:103E6000118807E03146204600F004FA0028E2DA23
:103E700087F31188F8BD0000D0E905239A4210B5F8
:103E800001D182687AB98268013282605A1C8261EB
:103E90001C7803699A4224BFC3688361002100F043
:103EA000F9F9204610BD4FF0FF30FBE72DE9F74F41
:103EB00004460E4617469846D0F81C904FF0200A4C
:103EC0008AF311884FF0000B154665B12A4631463A
:103ED0002046FFF7EFFE034660B94146204600F05A
:103EE000C9F90028F1D0002383F31188781B03B0AF
:103EF000BDE8F08FB9F1000F03D001902046C8470C
:103F0000019B8BF31188ED1A1E448AF31188DCE7BC
:103F1000026843681143016003B11847704700000D
:103F20001430FFF743BF00004FF0FF331430FFF7AA
:103F30003DBF00003830FFF7B9BF00004FF0FF333E
:103F40003830FFF7B3BF00001430FFF709BF00009F
:103F50004FF0FF311430FFF703BF00003830FFF798
:103F600063BF00004FF0FF323830FFF75DBF000045
:103F700000207047FFF75EBD044B03600023C0E9DB
:103F80000233436001230374704700BFB45100083B
:103F900010B52023044683F31188FFF773FD022335
:103FA0002374002383F3118810BD000038B5C36962
:103FB00004460D461BB904210844FFF7A9FF294612
:103FC00004F11400FFF7B0FE002806DA201D4FF4BC
:103FD0008061BDE83840FFF79BBF38BD024B00222F
:103FE000C3E900339A607047B035002000230374A2
:103FF0008268054B1B6899689142FBD25A6803603E
:104000004260106058607047B035002008B520232A
:1040100083F31188037C032B05D0042B0DD02BB91F
:1040200083F3118808BD436900221A604FF0FF3303
:104030004361FFF7DBFF0023F2E7D0E900321360B2
:104040005A60F3E7002303748268054B1B68996884
:104050009142FBD85A680360426010605860704714
:10406000B0350020054B19690874186802681A6099
:104070005360186101230374FCF7C2BAB035002005
:1040800030B54B1C0B4D87B0044610D02B690A4A43
:1040900001A800F019F92046FFF7E4FF049B13B1D3
:1040A00001A800F04DF92B69586907B030BDFFF742
:1040B000D9FFF8E7B03500200D40000838B50C4DA9
:1040C00041612B6981689A689142044603D8BDE832
:1040D0003840FFF78BBF1846FFF7B4FF01232C6170
:1040E000014623742046BDE83840FCF789BA00BF7A
:1040F000B0350020044B1A681B6990689B68984291
:1041000094BF002001207047B035002010B5084C46
:10411000236820691A6822605460012223611A749E
:10412000FFF790FF01462069BDE81040FCF768BA30
:10413000B035002008B5FFF7DDFF18B1BDE8084035
:10414000FFF7E4BF08BD0000FFF7E0BFFEE7000097
:1041500010B50C4CFFF742FF00F0A8F80A49802286
:10416000204600F03DF8012344F8180C0374FFF7D3
:1041700003FC002383F3118862B60448BDE81040B5
:1041800000F04EB8D8350020DC510008EC51000892
:1041900008B572B6034B586200F072FA00F01EFBCD
:1041A000FEE700BFB035002000F004B9EFF3118046
:1041B00020B9EFF30583202282F3118870470000B5
:1041C00010B530B9EFF30584C4F3080414B180F3DB
:1041D000118810BDFFF7AEFF84F31188F9E70000E6
:1041E00082600222028270478368A3F17C0243F856
:1041F0000C2C026943F83C2C426943F8382C074ADE
:1042000043F81C2CC26843F8102C022203F8082C37
:10421000002203F8072CA3F11800704719060008C4
:1042200010B5202383F31188FFF7DEFF0021044639
:10423000FFF744FF002383F31188204610BD0000E0
:10424000024B1B6958610F20FFF70CBFB0350020EF
:10425000202383F31188FFF7F3BF000008B5014660
:10426000202383F311880820FFF70AFF002383F33C
:10427000118808BD49B1064B42681B6918605A6035
:10428000136043600420FFF7FBBE4FF0FF30704720
:10429000B03500200368984206D01A68026050606A
:1042A00059611846FFF7A2BE70470000054B03F1A5
:1042B0001402C3E905224FF0FF310022C3E90712BF
:1042C000704700BFB035002070B51C4EC0E9032315
:1042D00005460C4600F0E8FA334653F8142F9A428C
:1042E0000DD13062C5E901242A600A2C2CBF0019C7
:1042F0000A30C6E90555BDE8704000F0C3BA316A1E
:10430000431AE31838BF1C469368A34202D9081920
:1043100000F0C6FA73699A6894420CD85A68AC6087
:104320002B606A6015609A685D60121B9A604FF09E
:10433000FF33F36170BD1B68A41AECE7B0350020B1
:1043400038B51B4C636998420DD0D0E90032136038
:104350005A6000228168C2609A680A449A604FF0ED
:10436000FF33E36138BD2246036842F8143F002161
:1043700093425A60C16003D1BDE8384000F08ABA68
:104380009A688168256A0A449A6000F08DFA636928
:104390009A68411B8A42E5D9AB181D1A092D206A7B
:1043A00098BF01F10A02BDE83840104400F078BA25
:1043B000B03500202DE9F041184C002704F1140617
:1043C000656900F071FA236AAA68C11A8A4215D891
:1043D00013442362D5E9003213605A606369D5F84B
:1043E0000C80EF60B34201D100F054FA87F31188DA
:1043F0002869C047202383F31188E1E76169B1424E
:1044000009D013441B1ABDE8F0410A2B2CBFC01879
:104410000A3000F045BABDE8F08100BFB035002099
:104420000C2303604FF0FF307047000000207047FE
:10443000FEE70000704700004FF0FF3070470000BB
:10444000BFF34F8F024A1369DB03FCD4704700BFF0
:104450000020024008B5094B1B7873B9FFF7F0FF45
:10446000074B5A69002ABFBF064A9A6002F1883298
:104470009A601A6822F480621A6008BD38370020FA
:10448000002002402301674508B50B4B1B7893B908
:10449000FFF7D6FF094B5A6942F000425A611A6889
:1044A00042F480521A601A6822F480521A601A6824
:1044B00042F480621A6008BD3837002000200240B4
:1044C0007F289ABF00F58030C002002070470000AE
:1044D0004FF4006070470000802070477F2808B5C7
:1044E0000BD8FFF7EDFF00F500630268013204D13D
:1044F00004308342F9D1012008BD0020FCE7000010
:104500007F2838B5044626D8FFF750FEFFF798FFFE
:10451000FFF7A0FF114BF3221A6102225A615A6978
:1045200042EAC4025A615A6942F480325A6105462D
:104530002046FFF785FF4FF40061FFF7C1FF00F051
:1045400049F92846FFF7A0FFFFF73AFE2046BDE8ED
:104550003840FFF7C3BF002038BD00BF0020024035
:1045600040EA020313F007032DE9F04705460C4625
:10457000164606D0324B40F2FB221A600020BDE8FE
:10458000F08781182F4A91420CD92D4A4FF440717F
:104590001160F3E72B1D1B686268934208D1083E47
:1045A00008350834072E19D92A6823689A42F1D0B1
:1045B000FFF7FCFDFFF74EFFFFF742FF04F1080194
:1045C000214C4FF001084FF00009012EA1F108071E
:1045D00008D8FFF759FFFFF7F3FD01E0002EE7D100
:1045E0000120CCE7C4F81480AA4651F8083C4AF8E8
:1045F000043B51F8043C6B60FFF722FFC4F81490B1
:104600002A6851F8083C9A420ED00D4B40F22632EF
:104610001A600E4B1D600E4B1E600E4B1F60FFF7A5
:1046200033FFFFF7CDFDA9E7DAF800A051F8043C0D
:104630009A4501F10801E8D1083E0835C5E700BFF9
:1046400034370020000004080020024028370020F2
:10465000303700202C370020084908B50B7828B1E6
:104660001BB9FFF7F7FE01230B7008BD002BFCD030
:10467000BDE808400870FFF707BF00BF38370020CB
:104680004FF4A0214FF0005000F0A6B870B582B0F2
:10469000FFF78CFD0E4E054600F006F93268904299
:1046A00037BF0C4A0B49516814682EBFD1E900414D
:1046B000013151600419034641F10001284601917E
:1046C0003360FFF77DFD0199204602B070BD00BF49
:1046D0003C3700204037002070B582B0FFF766FD00
:1046E000104E054600F0E0F83268904237BF0E4A9F
:1046F0000D49516814682EBFD1E900410131516064
:10470000041941F100010346284601913360FFF787
:1047100057FD01994FF47A7200232046FBF758FDAC
:1047200002B070BD3C3700204037002010B5024475
:10473000064BD2B2904200D110BD441C00B253F8D7
:10474000200041F8040BE0B2F4E700BF502800401D
:10475000114B30B5D3F89040240409D4D3F89040DD
:10476000C3F89040D3F8904044F40044C3F890401C
:104770000A4C236843F4807323600244084BD2B28E
:10478000904200D130BD441C00B251F8045B43F8A4
:104790002050E0B2F4E700BF00100240007000407B
:1047A0005028004007B5012201A90020FFF7BEFFF5
:1047B000019803B05DF804FB13B50446FFF7F2FF60
:1047C000A04205D0012201A900200194FFF7C0FFFB
:1047D00002B010BD70470000704700007047000035
:1047E000034B1B781BB1034B4AF6AA221A60704791
:1047F0004C37002000300040054B1A6832B902F1F6
:10480000804202F50432D2F894201A60704700BF4B
:1048100048370020024B4FF40002C3F89420704741
:104820000010024008B5FFF7E7FF024B1868C0F31D
:10483000407008BD4837002070470000FEE70000C8
:104840000A4B0B480B4A90420BD30B4BDA1C121A43
:10485000C11E22F003028B4238BF00220021FDF767
:104860001DB853F8041B40F8041BECE78053000804
:10487000E4370020E4370020E437002070470000D0
:1048800000F07EB84FF08043002258631A61022284
:10489000DA6070474FF080430022DA607047000012
:1048A0004FF08043586370474FF08043586A704719
:1048B0004B6843608B688360CB68C3600B6943615E
:1048C0004B6903628B6943620B68036070470000A9
:1048D00008B5234BDA6A42F0FF02DA62DA6A22F0A4
:1048E000FF02DA62DA6ADA6C42F0FF02DA64DA6E48
:1048F00042F0FF02DA661B4ADB6E11464FF0904031
:10490000FFF7D6FF02F11C0100F58060FFF7D0FF32
:1049100002F1380100F58060FFF7CAFF02F154018F
:1049200000F58060FFF7C4FF02F1700100F58060C0
:10493000FFF7BEFF02F18C0100F58060FFF7B8FFC2
:1049400002F1A80100F58060FFF7B2FF02F1C40197
:1049500000F58060FFF7ACFFBDE8084000F098B8B4
:10496000001002400452000808B500F01DFAFFF7DD
:10497000EFFBBDE80840FFF73FBF000070470000B5
:104980000F4B9A6D42F001029A659A6F42F0010254
:104990009A670C4A9B6F936843F0010393604FF052
:1049A00080434F229A624FF0FF32DA6200229A610E
:1049B0005A63DA605A6001225A611A60704700BF78
:1049C00000100240002004E04FF0804208B5116959
:1049D000D3680B40D9B2C9439B07116107D5202387
:1049E00083F31188FFF7E0FB002383F3118808BDF0
:1049F00008B5254B4FF0FF319A6A99629A6A0022F6
:104A00009A62986AD86A60F0FF00D862D86AC0B229
:104A1000D862D86A186B1963186B1A63186B986B95
:104A200060F080509863986B00F080509863986BAA
:104A3000D86BD963D86BDA63D86B186C1964196CAE
:104A40001A64196C996D41F080519965996F41F024
:104A500080519967996FD3F8901011F4407F1EBF71
:104A60004FF48031C3F89010C3F89020D3F8902011
:104A7000C3F8902000F070F9044B00225A605A6885
:104A800042F400725A6008BD0010024000700040FD
:104A90003A4B3B4A9A6501221A601A689007FCD586
:104AA00000229A609A6812F00C0FFBD1354A4FF43D
:104AB0000071116051694905FCD41A6842F4807292
:104AC0001A601A685205FCD52E490A6842F48072B1
:104AD0000A602D4A4FF4E06111601A6842F06002EA
:104AE0001A601A6842F008021A601A689007FCD52A
:104AF0009A6812F00C0FFBD1D3F8942042F4C062F4
:104B0000C3F89420214ADA601A6842F080721A6071
:104B10001A689101FCD51E4A1A611A6842F0806237
:104B20001A601A681201FCD500229A60194AC3F86B
:104B3000882015490122C3F89C200A6822F0070248
:104B400042F004020A600A6802F00702042AFAD15D
:104B50009A6842F003029A609A6802F00C020C2AEA
:104B6000FAD11A6E42F001021A66D3F8802042F0A0
:104B70000102C3F88020D3F8803070470010024053
:104B800000040010007000400020024012140001D8
:104B9000000C100055550134074A08B5536903F05D
:104BA0000103536123B1054A13680BB1506898475C
:104BB000BDE80840FEF704BF000401405037002064
:104BC000074A08B5536903F00203536123B1054A4C
:104BD00093680BB1D0689847BDE80840FEF7F0BE77
:104BE0000004014050370020074A08B5536903F01C
:104BF0000403536123B1054A13690BB15069984707
:104C0000BDE80840FEF7DCBE00040140503700203C
:104C1000074A08B5536903F00803536123B1054AF5
:104C200093690BB1D0699847BDE80840FEF7C8BE4C
:104C30000004014050370020074A08B5536903F0CB
:104C40001003536123B1054A136A0BB1506A9847A8
:104C5000BDE80840FEF7B4BE000401405037002014
:104C6000164B10B55C6904F478725A61A30604D53A
:104C7000134A936A0BB1D06A9847600604D5104A6C
:104C8000136B0BB1506B9847210604D50C4A936BFC
:104C90000BB1D06B9847E20504D5094A136C0BB1F0
:104CA000506C9847A30504D5054A936C0BB1D06CA2
:104CB0009847BDE81040FEF783BE00BF00040140E6
:104CC00050370020194B10B55C6904F47C425A61DE
:104CD000620504D5164A136D0BB1506D9847230534
:104CE00004D5134A936D0BB1D06D9847E00404D5F9
:104CF0000F4A136E0BB1506E9847A10404D50C4AAD
:104D0000936E0BB1D06E9847620404D5084A136FB6
:104D10000BB1506F9847230404D5054A936F0BB12C
:104D2000D06F9847BDE81040FEF74ABE000401402E
:104D30005037002008B50348FEF7F4FEBDE80840F0
:104D4000FEF73EBE0435002008B5FFF73DFEBDE886
:104D50000840FEF735BE0000062108B50846FEF7FC
:104D600065FF06210720FEF761FF06210820FEF7F8
:104D70005DFF06210920FEF759FF06210A20FEF7F4
:104D800055FF06211720FEF751FF06212820FEF7C8
:104D90004DFF07211C20FEF749FFBDE808400C210C
:104DA0002520FEF743BF000008B5FFF721FE00F005
:104DB00009F8FFF7DFF8FFF7E1FDBDE80840FFF76E
:104DC0005FBD00000023054A19460133102BC2E9DC
:104DD000001102F10802F8D1704700BF50370020DF
:104DE0000B460146184600F025B8000000F038B820
:104DF000012838BF012010B50446204600F028F8ED
:104E000030B900F007F808B900F00CF88047F4E773
:104E100010BD0000024B1868BFF35B8F704700BFE6
:104E2000D037002008B5062000F032F90120FFF746
:104E3000FFFA000010B5054C13462CB10A46014696
:104E40000220AFF3008010BD2046FCE70000000008
:104E5000024B0146186800F089B800BF2C110020F1
:104E6000024B0146186800F035B800BF2C11002035
:104E700010B501390244904201D1002005E00378C9
:104E800011F8014FA34201D0181B10BD0130F2E709
:104E90002DE9F041A3B1C91A17780144044603F182
:104EA000FF3C8C42204601D9002009E00578BD4234
:104EB00004F10104F5D10CEB0405D618A54201D18B
:104EC000BDE8F08115F8018D16F801EDF045F5D03B
:104ED000E7E7000037B5002944D051F8043C0190C1
:104EE000002BA1F10404B8BFE41800F0F5F81E4A45
:104EF0000198136833B96360146003B0BDE83040B3
:104F000000F0F0B8A34208D9256861198B4201BFAF
:104F100019685B6849192160EDE71A465B680BB1B7
:104F2000A342FAD911685518A5420BD1246821442F
:104F30005418A3421160E0D11C685B68536021449F
:104F40001160DAE702D90C230360D6E725686119FE
:104F50008B4204BF19685B68636004BF4919216014
:104F60005460CAE703B030BDD4370020F8B5CD1C7B
:104F700025F0030508350C2D38BF0C25002D0646FD
:104F800001DBA94203D90C2333600020F8BD00F0F7
:104F9000A3F821490A6814469CB9204F3B6823B9FD
:104FA0002146304600F03CF838602946304600F093
:104FB00037F8431C23D10C233360304600F092F8BD
:104FC000E3E723685B1B17D40B2B03D923601C4436
:104FD000256004E06368A2420CBF0B60536030465A
:104FE00000F080F804F10B00231D20F00700C21A26
:104FF000CCD01B1AA350C9E722466468CCE7C41C76
:1050000024F00304A042E3D0211A304600F008F84F
:105010000130DDD1CFE700BFD4370020D8370020E2
:1050200038B5064D0023044608462B60FFF7F8F913
:10503000431C02D12B6803B1236038BDDC3700204C
:105040001F2938B504460D4604D9162303604FF0D6
:10505000FF3038BD426C12B152F821304BB92046B6
:1050600000F030F82A4601462046BDE8384000F0FE
:1050700017B8012B0AD0591C03D116230360012055
:10508000E7E7002442F82540284698470020E0E75B
:10509000024B01461868FFF7D3BF00BF2C11002058
:1050A00038B5074D00230446084611462B60FFF72C
:1050B000C3F9431C02D12B6803B1236038BD00BF84
:1050C000DC370020FFF7B2B9034611F8012B03F8D3
:1050D000012B002AF9D17047014800F009B800BF40
:1050E000E0370020014800F005B800BFE03700209D
:1050F00070470000704700006F72672E6172647520
:1051000070696C6F742E506567617375732D4C34C4
:105110003936000053544D33324C343F3F000000C9
:105120004261642043414E496661636520696E6453
:1051300065782E00800000000080000000008000E4
:105140000000000000000000AD19000895210008D3
:10515000F5200008BD190008F1190008ED1B000832
:10516000C1190008D1190008C5190008CD19000897
:10517000C9190008151B0008D519000801240008EA
:10518000E5190008E91A000840A2E4F164689106F4
:105190000041A3E5F2656992070000000096000057
:1051A00000000000000000000000000000000000FF
:1051B00000000000000000003D3F0008293F0008FB
:1051C000653F0008513F00085D3F0008493F000867
:1051D000353F0008213F0008713F00086D61696E8E
:1051E0000000000069646C6500000000E4510008E4
:1051F000F035002028370020010000004D41000854
:10520000000000000000A82A00000000AAAABEAA10
:1052100000001424FFFF0000000000007097090048
:105220000040001000000000AAAAAAAA0000000086
:105230007FBF000000000000000000000000000030
:1052400000000000AAAAAAAA00000000FFFF0000B8
:10525000000000000000000000000000000000004E
:10526000AAAAAAAA00000000FFFF00000000000098
:10527000000000000000000000000000AAAAAAAA86
:1052800000000000FFFF0000000000000000000020
:105290000000000000000000AAAAAAAA0000000066
:1052A000FFFF000000000000000000000000000000
:1052B00000000000AAAAAAAA00000000FFFF000048
:1052C00000000000000000000000000000000000DE
:1052D000AAAAAAAA00000000FFFF00000000000028
:1052E000000000001CAFFF7F010000000000000074
:1052F0004C040000000000000060030000000000FB
:10530000FE2A0100D2040000FF0000000435002046
:1053100000000000145100083F0000003011002080
:10532000000000000000000000000000000000007D
:10533000000000000000000000000000000000006D
:10534000000000000000000000000000000000005D
:10535000000000000000000000000000000000004D
:10536000000000000000000000000000000000003D
:10537000000000000000000000000000000000002D
:00000001FF
